###############################################################################
#
# IAR ELF Linker V8.40.1.212/W32 for ARM                  13/Oct/2020  16:59:49
# Copyright 2007-2019 IAR Systems AB.
#
#    Output file  =
#        E:\RACEnergy\BitBucket_Codes\Rear_MCU\Rear_MCU\Toolchain\EWARM\Rear_MCU\Exe\Rear_MCU.out
#    Map file     =
#        E:\RACEnergy\BitBucket_Codes\Rear_MCU\Rear_MCU\Toolchain\EWARM\Rear_MCU\List\Rear_MCU.map
#    Command line =
#        -f C:\Users\SURYAM~1\AppData\Local\Temp\EW508A.tmp
#        (E:\RACEnergy\BitBucket_Codes\Rear_MCU\Rear_MCU\Toolchain\EWARM\Rear_MCU\Obj\main.o
#        E:\RACEnergy\BitBucket_Codes\Rear_MCU\Rear_MCU\Toolchain\EWARM\Rear_MCU\Obj\re_app_backup_battery.o
#        E:\RACEnergy\BitBucket_Codes\Rear_MCU\Rear_MCU\Toolchain\EWARM\Rear_MCU\Obj\re_app_can.o
#        E:\RACEnergy\BitBucket_Codes\Rear_MCU\Rear_MCU\Toolchain\EWARM\Rear_MCU\Obj\re_app_dock_latch.o
#        E:\RACEnergy\BitBucket_Codes\Rear_MCU\Rear_MCU\Toolchain\EWARM\Rear_MCU\Obj\re_app_gear_status.o
#        E:\RACEnergy\BitBucket_Codes\Rear_MCU\Rear_MCU\Toolchain\EWARM\Rear_MCU\Obj\re_app_idle_state.o
#        E:\RACEnergy\BitBucket_Codes\Rear_MCU\Rear_MCU\Toolchain\EWARM\Rear_MCU\Obj\re_app_key_position.o
#        E:\RACEnergy\BitBucket_Codes\Rear_MCU\Rear_MCU\Toolchain\EWARM\Rear_MCU\Obj\re_app_location.o
#        E:\RACEnergy\BitBucket_Codes\Rear_MCU\Rear_MCU\Toolchain\EWARM\Rear_MCU\Obj\re_app_motor_temperature.o
#        E:\RACEnergy\BitBucket_Codes\Rear_MCU\Rear_MCU\Toolchain\EWARM\Rear_MCU\Obj\re_app_nvs.o
#        E:\RACEnergy\BitBucket_Codes\Rear_MCU\Rear_MCU\Toolchain\EWARM\Rear_MCU\Obj\re_app_speed_info.o
#        E:\RACEnergy\BitBucket_Codes\Rear_MCU\Rear_MCU\Toolchain\EWARM\Rear_MCU\Obj\re_app_UART_Ring.o
#        E:\RACEnergy\BitBucket_Codes\Rear_MCU\Rear_MCU\Toolchain\EWARM\Rear_MCU\Obj\re_can_init.o
#        E:\RACEnergy\BitBucket_Codes\Rear_MCU\Rear_MCU\Toolchain\EWARM\Rear_MCU\Obj\re_can_int_callback.o
#        E:\RACEnergy\BitBucket_Codes\Rear_MCU\Rear_MCU\Toolchain\EWARM\Rear_MCU\Obj\re_gear_init.o
#        E:\RACEnergy\BitBucket_Codes\Rear_MCU\Rear_MCU\Toolchain\EWARM\Rear_MCU\Obj\re_gpio_int_callback.o
#        E:\RACEnergy\BitBucket_Codes\Rear_MCU\Rear_MCU\Toolchain\EWARM\Rear_MCU\Obj\re_i2c_init.o
#        E:\RACEnergy\BitBucket_Codes\Rear_MCU\Rear_MCU\Toolchain\EWARM\Rear_MCU\Obj\re_key_init.o
#        E:\RACEnergy\BitBucket_Codes\Rear_MCU\Rear_MCU\Toolchain\EWARM\Rear_MCU\Obj\re_latch_init.o
#        E:\RACEnergy\BitBucket_Codes\Rear_MCU\Rear_MCU\Toolchain\EWARM\Rear_MCU\Obj\re_location_init.o
#        E:\RACEnergy\BitBucket_Codes\Rear_MCU\Rear_MCU\Toolchain\EWARM\Rear_MCU\Obj\re_speed_init.o
#        E:\RACEnergy\BitBucket_Codes\Rear_MCU\Rear_MCU\Toolchain\EWARM\Rear_MCU\Obj\re_std_def.o
#        E:\RACEnergy\BitBucket_Codes\Rear_MCU\Rear_MCU\Toolchain\EWARM\Rear_MCU\Obj\re_sys_clk_config.o
#        E:\RACEnergy\BitBucket_Codes\Rear_MCU\Rear_MCU\Toolchain\EWARM\Rear_MCU\Obj\re_thc_init.o
#        E:\RACEnergy\BitBucket_Codes\Rear_MCU\Rear_MCU\Toolchain\EWARM\Rear_MCU\Obj\re_timer_init.o
#        E:\RACEnergy\BitBucket_Codes\Rear_MCU\Rear_MCU\Toolchain\EWARM\Rear_MCU\Obj\re_timer_int_callback.o
#        E:\RACEnergy\BitBucket_Codes\Rear_MCU\Rear_MCU\Toolchain\EWARM\Rear_MCU\Obj\re_uart_init.o
#        E:\RACEnergy\BitBucket_Codes\Rear_MCU\Rear_MCU\Toolchain\EWARM\Rear_MCU\Obj\re_vb_detection_init.o
#        E:\RACEnergy\BitBucket_Codes\Rear_MCU\Rear_MCU\Toolchain\EWARM\Rear_MCU\Obj\startup_stm32f446xx.o
#        E:\RACEnergy\BitBucket_Codes\Rear_MCU\Rear_MCU\Toolchain\EWARM\Rear_MCU\Obj\stm32f4xx_hal.o
#        E:\RACEnergy\BitBucket_Codes\Rear_MCU\Rear_MCU\Toolchain\EWARM\Rear_MCU\Obj\stm32f4xx_hal_adc.o
#        E:\RACEnergy\BitBucket_Codes\Rear_MCU\Rear_MCU\Toolchain\EWARM\Rear_MCU\Obj\stm32f4xx_hal_adc_ex.o
#        E:\RACEnergy\BitBucket_Codes\Rear_MCU\Rear_MCU\Toolchain\EWARM\Rear_MCU\Obj\stm32f4xx_hal_can.o
#        E:\RACEnergy\BitBucket_Codes\Rear_MCU\Rear_MCU\Toolchain\EWARM\Rear_MCU\Obj\stm32f4xx_hal_cec.o
#        E:\RACEnergy\BitBucket_Codes\Rear_MCU\Rear_MCU\Toolchain\EWARM\Rear_MCU\Obj\stm32f4xx_hal_cortex.o
#        E:\RACEnergy\BitBucket_Codes\Rear_MCU\Rear_MCU\Toolchain\EWARM\Rear_MCU\Obj\stm32f4xx_hal_crc.o
#        E:\RACEnergy\BitBucket_Codes\Rear_MCU\Rear_MCU\Toolchain\EWARM\Rear_MCU\Obj\stm32f4xx_hal_cryp.o
#        E:\RACEnergy\BitBucket_Codes\Rear_MCU\Rear_MCU\Toolchain\EWARM\Rear_MCU\Obj\stm32f4xx_hal_cryp_ex.o
#        E:\RACEnergy\BitBucket_Codes\Rear_MCU\Rear_MCU\Toolchain\EWARM\Rear_MCU\Obj\stm32f4xx_hal_dac.o
#        E:\RACEnergy\BitBucket_Codes\Rear_MCU\Rear_MCU\Toolchain\EWARM\Rear_MCU\Obj\stm32f4xx_hal_dac_ex.o
#        E:\RACEnergy\BitBucket_Codes\Rear_MCU\Rear_MCU\Toolchain\EWARM\Rear_MCU\Obj\stm32f4xx_hal_dcmi.o
#        E:\RACEnergy\BitBucket_Codes\Rear_MCU\Rear_MCU\Toolchain\EWARM\Rear_MCU\Obj\stm32f4xx_hal_dcmi_ex.o
#        E:\RACEnergy\BitBucket_Codes\Rear_MCU\Rear_MCU\Toolchain\EWARM\Rear_MCU\Obj\stm32f4xx_hal_dfsdm.o
#        E:\RACEnergy\BitBucket_Codes\Rear_MCU\Rear_MCU\Toolchain\EWARM\Rear_MCU\Obj\stm32f4xx_hal_dma.o
#        E:\RACEnergy\BitBucket_Codes\Rear_MCU\Rear_MCU\Toolchain\EWARM\Rear_MCU\Obj\stm32f4xx_hal_dma2d.o
#        E:\RACEnergy\BitBucket_Codes\Rear_MCU\Rear_MCU\Toolchain\EWARM\Rear_MCU\Obj\stm32f4xx_hal_dma_ex.o
#        E:\RACEnergy\BitBucket_Codes\Rear_MCU\Rear_MCU\Toolchain\EWARM\Rear_MCU\Obj\stm32f4xx_hal_dsi.o
#        E:\RACEnergy\BitBucket_Codes\Rear_MCU\Rear_MCU\Toolchain\EWARM\Rear_MCU\Obj\stm32f4xx_hal_eth.o
#        E:\RACEnergy\BitBucket_Codes\Rear_MCU\Rear_MCU\Toolchain\EWARM\Rear_MCU\Obj\stm32f4xx_hal_exti.o
#        E:\RACEnergy\BitBucket_Codes\Rear_MCU\Rear_MCU\Toolchain\EWARM\Rear_MCU\Obj\stm32f4xx_hal_flash.o
#        E:\RACEnergy\BitBucket_Codes\Rear_MCU\Rear_MCU\Toolchain\EWARM\Rear_MCU\Obj\stm32f4xx_hal_flash_ex.o
#        E:\RACEnergy\BitBucket_Codes\Rear_MCU\Rear_MCU\Toolchain\EWARM\Rear_MCU\Obj\stm32f4xx_hal_flash_ramfunc.o
#        E:\RACEnergy\BitBucket_Codes\Rear_MCU\Rear_MCU\Toolchain\EWARM\Rear_MCU\Obj\stm32f4xx_hal_fmpi2c.o
#        E:\RACEnergy\BitBucket_Codes\Rear_MCU\Rear_MCU\Toolchain\EWARM\Rear_MCU\Obj\stm32f4xx_hal_fmpi2c_ex.o
#        E:\RACEnergy\BitBucket_Codes\Rear_MCU\Rear_MCU\Toolchain\EWARM\Rear_MCU\Obj\stm32f4xx_hal_fmpsmbus.o
#        E:\RACEnergy\BitBucket_Codes\Rear_MCU\Rear_MCU\Toolchain\EWARM\Rear_MCU\Obj\stm32f4xx_hal_gpio.o
#        E:\RACEnergy\BitBucket_Codes\Rear_MCU\Rear_MCU\Toolchain\EWARM\Rear_MCU\Obj\stm32f4xx_hal_hash.o
#        E:\RACEnergy\BitBucket_Codes\Rear_MCU\Rear_MCU\Toolchain\EWARM\Rear_MCU\Obj\stm32f4xx_hal_hash_ex.o
#        E:\RACEnergy\BitBucket_Codes\Rear_MCU\Rear_MCU\Toolchain\EWARM\Rear_MCU\Obj\stm32f4xx_hal_hcd.o
#        E:\RACEnergy\BitBucket_Codes\Rear_MCU\Rear_MCU\Toolchain\EWARM\Rear_MCU\Obj\stm32f4xx_hal_i2c.o
#        E:\RACEnergy\BitBucket_Codes\Rear_MCU\Rear_MCU\Toolchain\EWARM\Rear_MCU\Obj\stm32f4xx_hal_i2c_ex.o
#        E:\RACEnergy\BitBucket_Codes\Rear_MCU\Rear_MCU\Toolchain\EWARM\Rear_MCU\Obj\stm32f4xx_hal_i2s.o
#        E:\RACEnergy\BitBucket_Codes\Rear_MCU\Rear_MCU\Toolchain\EWARM\Rear_MCU\Obj\stm32f4xx_hal_i2s_ex.o
#        E:\RACEnergy\BitBucket_Codes\Rear_MCU\Rear_MCU\Toolchain\EWARM\Rear_MCU\Obj\stm32f4xx_hal_irda.o
#        E:\RACEnergy\BitBucket_Codes\Rear_MCU\Rear_MCU\Toolchain\EWARM\Rear_MCU\Obj\stm32f4xx_hal_iwdg.o
#        E:\RACEnergy\BitBucket_Codes\Rear_MCU\Rear_MCU\Toolchain\EWARM\Rear_MCU\Obj\stm32f4xx_hal_lptim.o
#        E:\RACEnergy\BitBucket_Codes\Rear_MCU\Rear_MCU\Toolchain\EWARM\Rear_MCU\Obj\stm32f4xx_hal_ltdc.o
#        E:\RACEnergy\BitBucket_Codes\Rear_MCU\Rear_MCU\Toolchain\EWARM\Rear_MCU\Obj\stm32f4xx_hal_ltdc_ex.o
#        E:\RACEnergy\BitBucket_Codes\Rear_MCU\Rear_MCU\Toolchain\EWARM\Rear_MCU\Obj\stm32f4xx_hal_mmc.o
#        E:\RACEnergy\BitBucket_Codes\Rear_MCU\Rear_MCU\Toolchain\EWARM\Rear_MCU\Obj\stm32f4xx_hal_nand.o
#        E:\RACEnergy\BitBucket_Codes\Rear_MCU\Rear_MCU\Toolchain\EWARM\Rear_MCU\Obj\stm32f4xx_hal_nor.o
#        E:\RACEnergy\BitBucket_Codes\Rear_MCU\Rear_MCU\Toolchain\EWARM\Rear_MCU\Obj\stm32f4xx_hal_pccard.o
#        E:\RACEnergy\BitBucket_Codes\Rear_MCU\Rear_MCU\Toolchain\EWARM\Rear_MCU\Obj\stm32f4xx_hal_pcd.o
#        E:\RACEnergy\BitBucket_Codes\Rear_MCU\Rear_MCU\Toolchain\EWARM\Rear_MCU\Obj\stm32f4xx_hal_pcd_ex.o
#        E:\RACEnergy\BitBucket_Codes\Rear_MCU\Rear_MCU\Toolchain\EWARM\Rear_MCU\Obj\stm32f4xx_hal_pwr.o
#        E:\RACEnergy\BitBucket_Codes\Rear_MCU\Rear_MCU\Toolchain\EWARM\Rear_MCU\Obj\stm32f4xx_hal_pwr_ex.o
#        E:\RACEnergy\BitBucket_Codes\Rear_MCU\Rear_MCU\Toolchain\EWARM\Rear_MCU\Obj\stm32f4xx_hal_qspi.o
#        E:\RACEnergy\BitBucket_Codes\Rear_MCU\Rear_MCU\Toolchain\EWARM\Rear_MCU\Obj\stm32f4xx_hal_rcc.o
#        E:\RACEnergy\BitBucket_Codes\Rear_MCU\Rear_MCU\Toolchain\EWARM\Rear_MCU\Obj\stm32f4xx_hal_rcc_ex.o
#        E:\RACEnergy\BitBucket_Codes\Rear_MCU\Rear_MCU\Toolchain\EWARM\Rear_MCU\Obj\stm32f4xx_hal_rng.o
#        E:\RACEnergy\BitBucket_Codes\Rear_MCU\Rear_MCU\Toolchain\EWARM\Rear_MCU\Obj\stm32f4xx_hal_rtc.o
#        E:\RACEnergy\BitBucket_Codes\Rear_MCU\Rear_MCU\Toolchain\EWARM\Rear_MCU\Obj\stm32f4xx_hal_rtc_ex.o
#        E:\RACEnergy\BitBucket_Codes\Rear_MCU\Rear_MCU\Toolchain\EWARM\Rear_MCU\Obj\stm32f4xx_hal_sai.o
#        E:\RACEnergy\BitBucket_Codes\Rear_MCU\Rear_MCU\Toolchain\EWARM\Rear_MCU\Obj\stm32f4xx_hal_sai_ex.o
#        E:\RACEnergy\BitBucket_Codes\Rear_MCU\Rear_MCU\Toolchain\EWARM\Rear_MCU\Obj\stm32f4xx_hal_sd.o
#        E:\RACEnergy\BitBucket_Codes\Rear_MCU\Rear_MCU\Toolchain\EWARM\Rear_MCU\Obj\stm32f4xx_hal_sdram.o
#        E:\RACEnergy\BitBucket_Codes\Rear_MCU\Rear_MCU\Toolchain\EWARM\Rear_MCU\Obj\stm32f4xx_hal_smartcard.o
#        E:\RACEnergy\BitBucket_Codes\Rear_MCU\Rear_MCU\Toolchain\EWARM\Rear_MCU\Obj\stm32f4xx_hal_smbus.o
#        E:\RACEnergy\BitBucket_Codes\Rear_MCU\Rear_MCU\Toolchain\EWARM\Rear_MCU\Obj\stm32f4xx_hal_spdifrx.o
#        E:\RACEnergy\BitBucket_Codes\Rear_MCU\Rear_MCU\Toolchain\EWARM\Rear_MCU\Obj\stm32f4xx_hal_spi.o
#        E:\RACEnergy\BitBucket_Codes\Rear_MCU\Rear_MCU\Toolchain\EWARM\Rear_MCU\Obj\stm32f4xx_hal_sram.o
#        E:\RACEnergy\BitBucket_Codes\Rear_MCU\Rear_MCU\Toolchain\EWARM\Rear_MCU\Obj\stm32f4xx_hal_tim.o
#        E:\RACEnergy\BitBucket_Codes\Rear_MCU\Rear_MCU\Toolchain\EWARM\Rear_MCU\Obj\stm32f4xx_hal_tim_ex.o
#        E:\RACEnergy\BitBucket_Codes\Rear_MCU\Rear_MCU\Toolchain\EWARM\Rear_MCU\Obj\stm32f4xx_hal_uart.o
#        E:\RACEnergy\BitBucket_Codes\Rear_MCU\Rear_MCU\Toolchain\EWARM\Rear_MCU\Obj\stm32f4xx_hal_usart.o
#        E:\RACEnergy\BitBucket_Codes\Rear_MCU\Rear_MCU\Toolchain\EWARM\Rear_MCU\Obj\stm32f4xx_hal_wwdg.o
#        E:\RACEnergy\BitBucket_Codes\Rear_MCU\Rear_MCU\Toolchain\EWARM\Rear_MCU\Obj\stm32f4xx_it.o
#        E:\RACEnergy\BitBucket_Codes\Rear_MCU\Rear_MCU\Toolchain\EWARM\Rear_MCU\Obj\stm32f4xx_ll_adc.o
#        E:\RACEnergy\BitBucket_Codes\Rear_MCU\Rear_MCU\Toolchain\EWARM\Rear_MCU\Obj\stm32f4xx_ll_crc.o
#        E:\RACEnergy\BitBucket_Codes\Rear_MCU\Rear_MCU\Toolchain\EWARM\Rear_MCU\Obj\stm32f4xx_ll_dac.o
#        E:\RACEnergy\BitBucket_Codes\Rear_MCU\Rear_MCU\Toolchain\EWARM\Rear_MCU\Obj\stm32f4xx_ll_dma.o
#        E:\RACEnergy\BitBucket_Codes\Rear_MCU\Rear_MCU\Toolchain\EWARM\Rear_MCU\Obj\stm32f4xx_ll_dma2d.o
#        E:\RACEnergy\BitBucket_Codes\Rear_MCU\Rear_MCU\Toolchain\EWARM\Rear_MCU\Obj\stm32f4xx_ll_exti.o
#        E:\RACEnergy\BitBucket_Codes\Rear_MCU\Rear_MCU\Toolchain\EWARM\Rear_MCU\Obj\stm32f4xx_ll_fmc.o
#        E:\RACEnergy\BitBucket_Codes\Rear_MCU\Rear_MCU\Toolchain\EWARM\Rear_MCU\Obj\stm32f4xx_ll_fmpi2c.o
#        E:\RACEnergy\BitBucket_Codes\Rear_MCU\Rear_MCU\Toolchain\EWARM\Rear_MCU\Obj\stm32f4xx_ll_fsmc.o
#        E:\RACEnergy\BitBucket_Codes\Rear_MCU\Rear_MCU\Toolchain\EWARM\Rear_MCU\Obj\stm32f4xx_ll_gpio.o
#        E:\RACEnergy\BitBucket_Codes\Rear_MCU\Rear_MCU\Toolchain\EWARM\Rear_MCU\Obj\stm32f4xx_ll_i2c.o
#        E:\RACEnergy\BitBucket_Codes\Rear_MCU\Rear_MCU\Toolchain\EWARM\Rear_MCU\Obj\stm32f4xx_ll_lptim.o
#        E:\RACEnergy\BitBucket_Codes\Rear_MCU\Rear_MCU\Toolchain\EWARM\Rear_MCU\Obj\stm32f4xx_ll_pwr.o
#        E:\RACEnergy\BitBucket_Codes\Rear_MCU\Rear_MCU\Toolchain\EWARM\Rear_MCU\Obj\stm32f4xx_ll_rcc.o
#        E:\RACEnergy\BitBucket_Codes\Rear_MCU\Rear_MCU\Toolchain\EWARM\Rear_MCU\Obj\stm32f4xx_ll_rng.o
#        E:\RACEnergy\BitBucket_Codes\Rear_MCU\Rear_MCU\Toolchain\EWARM\Rear_MCU\Obj\stm32f4xx_ll_rtc.o
#        E:\RACEnergy\BitBucket_Codes\Rear_MCU\Rear_MCU\Toolchain\EWARM\Rear_MCU\Obj\stm32f4xx_ll_sdmmc.o
#        E:\RACEnergy\BitBucket_Codes\Rear_MCU\Rear_MCU\Toolchain\EWARM\Rear_MCU\Obj\stm32f4xx_ll_spi.o
#        E:\RACEnergy\BitBucket_Codes\Rear_MCU\Rear_MCU\Toolchain\EWARM\Rear_MCU\Obj\stm32f4xx_ll_tim.o
#        E:\RACEnergy\BitBucket_Codes\Rear_MCU\Rear_MCU\Toolchain\EWARM\Rear_MCU\Obj\stm32f4xx_ll_usart.o
#        E:\RACEnergy\BitBucket_Codes\Rear_MCU\Rear_MCU\Toolchain\EWARM\Rear_MCU\Obj\stm32f4xx_ll_usb.o
#        E:\RACEnergy\BitBucket_Codes\Rear_MCU\Rear_MCU\Toolchain\EWARM\Rear_MCU\Obj\stm32f4xx_ll_utils.o
#        E:\RACEnergy\BitBucket_Codes\Rear_MCU\Rear_MCU\Toolchain\EWARM\Rear_MCU\Obj\system_stm32f4xx.o
#        --redirect _Printf=_PrintfFull --redirect _Scanf=_ScanfFull
#        --no_out_extension -o
#        E:\RACEnergy\BitBucket_Codes\Rear_MCU\Rear_MCU\Toolchain\EWARM\Rear_MCU\Exe\Rear_MCU.out
#        --map
#        E:\RACEnergy\BitBucket_Codes\Rear_MCU\Rear_MCU\Toolchain\EWARM\Rear_MCU\List\Rear_MCU.map
#        --config
#        E:\RACEnergy\BitBucket_Codes\Rear_MCU\Rear_MCU\Toolchain\EWARM/stm32f446xx_flash.icf
#        --semihosting --entry __iar_program_start --vfe --text_out locale)
#
###############################################################################

*******************************************************************************
*** RUNTIME MODEL ATTRIBUTES
***

CppFlavor       = *
__SystemLibrary = DLib
__dlib_version  = 6


*******************************************************************************
*** HEAP SELECTION
***

The basic heap was selected because no calls to memory allocation
functions were found in the application outside of system library
functions, and there are calls to deallocation functions in the
application.


*******************************************************************************
*** PLACEMENT SUMMARY
***

"A0":  place at address 0x800'0000 { ro section .intvec };
"P1":  place in [from 0x800'0000 to 0x807'ffff] { ro };
define block CSTACK with size = 1K, alignment = 8 { };
define block HEAP with size = 512, alignment = 8 { };
"P2":  place in [from 0x2000'0000 to 0x2001'ffff] {
          rw, block CSTACK, block HEAP };
initialize by copy { rw };

  Section            Kind         Address    Size  Object
  -------            ----         -------    ----  ------
"A0":                                       0x1c4
  .intvec            ro code   0x800'0000   0x1c4  startup_stm32f446xx.o [1]
                             - 0x800'01c4   0x1c4

"P1":                                      0x4db4
  .text              ro code   0x800'01c4   0xb68  stm32f4xx_hal_i2c.o [1]
  .text              ro code   0x800'0d2c   0x190  stm32f4xx_hal_rcc.o [1]
  .text              ro code   0x800'0ebc     0xc  stm32f4xx_hal.o [1]
  .text              ro code   0x800'0ec8   0x4c0  stm32f4xx_hal_rcc_ex.o [1]
  .text              ro code   0x800'1388    0x4c  stm32f4xx_hal.o [1]
  .text              ro code   0x800'13d4   0x230  I64DivMod.o [4]
  .text              ro code   0x800'1604   0x190  stm32f4xx_hal_cortex.o [1]
  .text              ro code   0x800'1794     0x2  I64DivZer.o [4]
  .text              ro code   0x800'1796    0x3a  zero_init3.o [4]
  .text              ro code   0x800'17d0   0x7de  stm32f4xx_hal_can.o [1]
  .text              ro code   0x800'1fae     0x2  stm32f4xx_hal_can.o [1]
  .text              ro code   0x800'1fb0     0x2  stm32f4xx_hal_can.o [1]
  .text              ro code   0x800'1fb2     0x2  stm32f4xx_hal_can.o [1]
  .text              ro code   0x800'1fb4     0x2  stm32f4xx_hal_can.o [1]
  .text              ro code   0x800'1fb6     0x2  stm32f4xx_hal_can.o [1]
  .text              ro code   0x800'1fb8     0x2  stm32f4xx_hal_can.o [1]
  .text              ro code   0x800'1fba     0x2  stm32f4xx_hal_can.o [1]
  .text              ro code   0x800'1fbc    0x9c  re_can_int_callback.o [1]
  .text              ro code   0x800'2058     0x2  stm32f4xx_hal_can.o [1]
  .text              ro code   0x800'205a     0x2  stm32f4xx_hal_can.o [1]
  .text              ro code   0x800'205c     0x2  stm32f4xx_hal_can.o [1]
  .text              ro code   0x800'205e     0x2  stm32f4xx_hal_can.o [1]
  .text              ro code   0x800'2060     0x2  stm32f4xx_hal_can.o [1]
  .text              ro code   0x800'2062     0x2  re_std_def.o [1]
  .text              ro code   0x800'2064    0x34  re_app_dock_latch.o [1]
  .text              ro code   0x800'2098    0x24  re_app_gear_status.o [1]
  .text              ro code   0x800'20bc   0x2b4  stm32f4xx_hal_gpio.o [1]
  .text              ro code   0x800'2370    0x94  re_gpio_int_callback.o [1]
  .text              ro code   0x800'2404    0x80  re_app_location.o [1]
  .text              ro code   0x800'2484   0x65a  stm32f4xx_hal_uart.o [1]
  .text              ro code   0x800'2ade    0x2e  copy_init3.o [4]
  .text              ro code   0x800'2b0c   0x45c  stm32f4xx_hal_tim.o [1]
  .text              ro code   0x800'2f68     0x2  stm32f4xx_hal_tim.o [1]
  .text              ro code   0x800'2f6a     0x2  stm32f4xx_hal_tim.o [1]
  .text              ro code   0x800'2f6c     0x2  stm32f4xx_hal_tim.o [1]
  .text              ro code   0x800'2f70    0x48  re_timer_int_callback.o [1]
  .text              ro code   0x800'2fb8     0x2  stm32f4xx_hal_tim_ex.o [1]
  .text              ro code   0x800'2fba     0x2  stm32f4xx_hal_tim.o [1]
  .text              ro code   0x800'2fbc     0x2  stm32f4xx_hal_tim_ex.o [1]
  .text              ro code   0x800'2fc0   0x248  re_app_idle_state.o [1]
  .text              ro code   0x800'3208   0x100  re_app_speed_info.o [1]
  .text              ro code   0x800'3308    0xf8  re_app_nvs.o [1]
  .text              ro code   0x800'3400   0x166  re_app_can.o [1]
  .text              ro code   0x800'3568    0xe4  re_app_backup_battery.o [1]
  .text              ro code   0x800'364c    0x9a  re_app_UART_Ring.o [1]
  .text              ro code   0x800'36e8    0x1a  U32ToDbl.o [3]
  .text              ro code   0x800'3704   0x1a2  DblMul.o [3]
  .text              ro code   0x800'38a8   0x17a  DblAdd.o [3]
  .text              ro code   0x800'3a24   0x246  DblDiv.o [3]
  .text              ro code   0x800'3c6c    0x3a  DblToS32.o [3]
  .text              ro code   0x800'3ca8    0x2e  DblCmpGe.o [3]
  .text              ro code   0x800'3cd8    0x28  stm32f4xx_hal.o [1]
  .text              ro code   0x800'3d00    0x66  ABImemset.o [4]
  .text              ro code   0x800'3d68    0xd2  DblSub.o [3]
  .text              ro code   0x800'3e3c   0x18c  re_can_init.o [1]
  .text              ro code   0x800'3fc8    0x14  memset.o [4]
  .text              ro code   0x800'3fdc   0x16c  re_timer_init.o [1]
  .text              ro code   0x800'4148    0xac  stm32f4xx_hal_tim_ex.o [1]
  .text              ro code   0x800'41f4    0xe0  re_uart_init.o [1]
  .text              ro code   0x800'42d4    0xd4  re_i2c_init.o [1]
  .text              ro code   0x800'43a8    0xd0  re_sys_clk_config.o [1]
  .text              ro code   0x800'4478    0x7c  stm32f4xx_hal_pwr_ex.o [1]
  .text              ro code   0x800'44f4    0xc0  re_latch_init.o [1]
  .text              ro code   0x800'45b4    0x90  main.o [1]
  .text              ro code   0x800'4644    0x36  stm32f4xx_hal.o [1]
  .text              ro code   0x800'467c    0x44  re_location_init.o [1]
  .text              ro code   0x800'46c0    0x8c  re_key_init.o [1]
  .text              ro code   0x800'474c    0x8c  re_thc_init.o [1]
  .text              ro code   0x800'47d8    0x5c  re_gear_init.o [1]
  .text              ro code   0x800'4834    0x58  re_speed_init.o [1]
  .text              ro code   0x800'488c    0x90  re_vb_detection_init.o [1]
  .text              ro code   0x800'491c    0x18  re_app_motor_temperature.o [1]
  .text              ro code   0x800'4934    0x88  stm32f4xx_it.o [1]
  .text              ro code   0x800'49bc    0x18  stm32f4xx_hal.o [1]
  .rodata            const     0x800'49d4    0x5c  re_app_idle_state.o [1]
  .rodata            const     0x800'4a30    0x5c  re_app_speed_info.o [1]
  .rodata            const     0x800'4a8c    0x54  re_sys_clk_config.o [1]
  .rodata            const     0x800'4ae0    0x50  re_can_int_callback.o [1]
  .rodata            const     0x800'4b30    0x4c  re_app_can.o [1]
  .rodata            const     0x800'4b7c    0x4c  re_app_nvs.o [1]
  .rodata            const     0x800'4bc8    0x4c  re_timer_init.o [1]
  .rodata            const     0x800'4c14    0x48  main.o [1]
  .rodata            const     0x800'4c5c    0x48  re_can_init.o [1]
  .rodata            const     0x800'4ca4    0x48  re_i2c_init.o [1]
  .rodata            const     0x800'4cec    0x48  re_uart_init.o [1]
  .text              ro code   0x800'4d34    0x28  data_init.o [4]
  .text              ro code   0x800'4d5c    0x22  fpinit_M.o [3]
  .iar.init_table    const     0x800'4d80    0x24  - Linker created -
  .text              ro code   0x800'4da4    0x1e  cmain.o [4]
  .text              ro code   0x800'4dc2     0x4  low_level_init.o [2]
  .text              ro code   0x800'4dc6     0x4  exit.o [2]
  .text              ro code   0x800'4dcc     0xa  cexit.o [4]
  .text              ro code   0x800'4dd8    0x14  exit.o [5]
  .text              ro code   0x800'4dec    0x1c  system_stm32f4xx.o [1]
  .rodata            const     0x800'4e08    0x10  system_stm32f4xx.o [1]
  .text              ro code   0x800'4e18    0x10  startup_stm32f446xx.o [1]
  .text              ro code   0x800'4e28     0xc  cstartup_M.o [4]
  Initializer bytes  const     0x800'4e34     0xc  <for P2-1>
  .rodata            const     0x800'4e40     0x8  system_stm32f4xx.o [1]
  .text              ro code   0x800'4e48     0x4  startup_stm32f446xx.o [1]
  .text              ro code   0x800'4e4c     0x4  startup_stm32f446xx.o [1]
  .text              ro code   0x800'4e50     0x4  startup_stm32f446xx.o [1]
  .text              ro code   0x800'4e54     0x4  startup_stm32f446xx.o [1]
  .text              ro code   0x800'4e58     0x4  startup_stm32f446xx.o [1]
  .text              ro code   0x800'4e5c     0x4  startup_stm32f446xx.o [1]
  .text              ro code   0x800'4e60     0x4  startup_stm32f446xx.o [1]
  .text              ro code   0x800'4e64     0x4  startup_stm32f446xx.o [1]
  .text              ro code   0x800'4e68     0x4  startup_stm32f446xx.o [1]
  .text              ro code   0x800'4e6c     0x4  startup_stm32f446xx.o [1]
  .text              ro code   0x800'4e70     0x4  startup_stm32f446xx.o [1]
  .text              ro code   0x800'4e74     0x4  startup_stm32f446xx.o [1]
  .text              ro code   0x800'4e78     0x4  startup_stm32f446xx.o [1]
  .text              ro code   0x800'4e7c     0x4  startup_stm32f446xx.o [1]
  .text              ro code   0x800'4e80     0x4  startup_stm32f446xx.o [1]
  .text              ro code   0x800'4e84     0x4  startup_stm32f446xx.o [1]
  .text              ro code   0x800'4e88     0x4  startup_stm32f446xx.o [1]
  .text              ro code   0x800'4e8c     0x4  startup_stm32f446xx.o [1]
  .text              ro code   0x800'4e90     0x4  startup_stm32f446xx.o [1]
  .text              ro code   0x800'4e94     0x4  startup_stm32f446xx.o [1]
  .text              ro code   0x800'4e98     0x4  startup_stm32f446xx.o [1]
  .text              ro code   0x800'4e9c     0x4  startup_stm32f446xx.o [1]
  .text              ro code   0x800'4ea0     0x4  startup_stm32f446xx.o [1]
  .text              ro code   0x800'4ea4     0x4  startup_stm32f446xx.o [1]
  .text              ro code   0x800'4ea8     0x4  startup_stm32f446xx.o [1]
  .text              ro code   0x800'4eac     0x4  startup_stm32f446xx.o [1]
  .text              ro code   0x800'4eb0     0x4  startup_stm32f446xx.o [1]
  .text              ro code   0x800'4eb4     0x4  startup_stm32f446xx.o [1]
  .text              ro code   0x800'4eb8     0x4  startup_stm32f446xx.o [1]
  .text              ro code   0x800'4ebc     0x4  startup_stm32f446xx.o [1]
  .text              ro code   0x800'4ec0     0x4  startup_stm32f446xx.o [1]
  .text              ro code   0x800'4ec4     0x4  startup_stm32f446xx.o [1]
  .text              ro code   0x800'4ec8     0x4  startup_stm32f446xx.o [1]
  .text              ro code   0x800'4ecc     0x4  startup_stm32f446xx.o [1]
  .text              ro code   0x800'4ed0     0x4  startup_stm32f446xx.o [1]
  .text              ro code   0x800'4ed4     0x4  startup_stm32f446xx.o [1]
  .text              ro code   0x800'4ed8     0x4  startup_stm32f446xx.o [1]
  .text              ro code   0x800'4edc     0x4  startup_stm32f446xx.o [1]
  .text              ro code   0x800'4ee0     0x4  startup_stm32f446xx.o [1]
  .text              ro code   0x800'4ee4     0x4  startup_stm32f446xx.o [1]
  .text              ro code   0x800'4ee8     0x4  startup_stm32f446xx.o [1]
  .text              ro code   0x800'4eec     0x4  startup_stm32f446xx.o [1]
  .text              ro code   0x800'4ef0     0x4  startup_stm32f446xx.o [1]
  .text              ro code   0x800'4ef4     0x4  startup_stm32f446xx.o [1]
  .text              ro code   0x800'4ef8     0x4  startup_stm32f446xx.o [1]
  .text              ro code   0x800'4efc     0x4  startup_stm32f446xx.o [1]
  .text              ro code   0x800'4f00     0x4  startup_stm32f446xx.o [1]
  .text              ro code   0x800'4f04     0x4  startup_stm32f446xx.o [1]
  .text              ro code   0x800'4f08     0x4  startup_stm32f446xx.o [1]
  .text              ro code   0x800'4f0c     0x4  startup_stm32f446xx.o [1]
  .text              ro code   0x800'4f10     0x4  startup_stm32f446xx.o [1]
  .text              ro code   0x800'4f14     0x4  startup_stm32f446xx.o [1]
  .text              ro code   0x800'4f18     0x4  startup_stm32f446xx.o [1]
  .text              ro code   0x800'4f1c     0x4  startup_stm32f446xx.o [1]
  .text              ro code   0x800'4f20     0x4  startup_stm32f446xx.o [1]
  .text              ro code   0x800'4f24     0x4  startup_stm32f446xx.o [1]
  .text              ro code   0x800'4f28     0x4  startup_stm32f446xx.o [1]
  .text              ro code   0x800'4f2c     0x4  startup_stm32f446xx.o [1]
  .text              ro code   0x800'4f30     0x4  startup_stm32f446xx.o [1]
  .text              ro code   0x800'4f34     0x4  startup_stm32f446xx.o [1]
  .text              ro code   0x800'4f38     0x4  startup_stm32f446xx.o [1]
  .text              ro code   0x800'4f3c     0x4  startup_stm32f446xx.o [1]
  .text              ro code   0x800'4f40     0x4  startup_stm32f446xx.o [1]
  .text              ro code   0x800'4f44     0x4  startup_stm32f446xx.o [1]
  .text              ro code   0x800'4f48     0x4  startup_stm32f446xx.o [1]
  .text              ro code   0x800'4f4c     0x4  startup_stm32f446xx.o [1]
  .text              ro code   0x800'4f50     0x4  startup_stm32f446xx.o [1]
  .text              ro code   0x800'4f54     0x4  startup_stm32f446xx.o [1]
  .text              ro code   0x800'4f58     0x4  startup_stm32f446xx.o [1]
  .text              ro code   0x800'4f5c     0x4  startup_stm32f446xx.o [1]
  .text              ro code   0x800'4f60     0x4  startup_stm32f446xx.o [1]
  .text              ro code   0x800'4f64     0x4  startup_stm32f446xx.o [1]
  .text              ro code   0x800'4f68     0x4  startup_stm32f446xx.o [1]
  .text              ro code   0x800'4f6c     0x4  startup_stm32f446xx.o [1]
  .text              ro code   0x800'4f70     0x4  startup_stm32f446xx.o [1]
  .text              ro code   0x800'4f74     0x4  startup_stm32f446xx.o [1]
  .rodata            const     0x800'4f78     0x0  zero_init3.o [4]
  .rodata            const     0x800'4f78     0x0  copy_init3.o [4]
                             - 0x800'4f78  0x4db4

"P2", part 1 of 3:                            0xc
  P2-1                        0x2000'0000     0x9  <Init block>
    .data            inited   0x2000'0000     0x4  stm32f4xx_hal.o [1]
    .data            inited   0x2000'0004     0x4  system_stm32f4xx.o [1]
    .data            inited   0x2000'0008     0x1  stm32f4xx_hal.o [1]
                            - 0x2000'0009     0x9

"P2", part 2 of 3:                          0x364
  .bss               zero     0x2000'000c    0xd0  re_app_UART_Ring.o [1]
  .bss               zero     0x2000'00dc    0xd0  re_app_UART_Ring.o [1]
  .bss               zero     0x2000'01ac    0x54  re_i2c_init.o [1]
  .bss               zero     0x2000'0200    0x40  re_timer_init.o [1]
  .bss               zero     0x2000'0240    0x40  re_timer_init.o [1]
  .bss               zero     0x2000'0280    0x40  re_uart_init.o [1]
  .bss               zero     0x2000'02c0    0x28  re_can_init.o [1]
  .bss               zero     0x2000'02e8    0x1c  re_can_init.o [1]
  .bss               zero     0x2000'0304    0x18  re_can_init.o [1]
  .bss               zero     0x2000'031c     0xc  re_app_nvs.o [1]
  .bss               zero     0x2000'0328     0xc  re_app_nvs.o [1]
  .bss               zero     0x2000'0338     0x8  re_app_speed_info.o [1]
  .bss               zero     0x2000'0340     0x4  re_app_can.o [1]
  .bss               zero     0x2000'0344     0x4  re_app_speed_info.o [1]
  .bss               zero     0x2000'0348     0x4  re_app_speed_info.o [1]
  .bss               zero     0x2000'034c     0x4  re_app_speed_info.o [1]
  .bss               zero     0x2000'0350     0x4  re_app_speed_info.o [1]
  .bss               zero     0x2000'0354     0x4  re_app_UART_Ring.o [1]
  .bss               zero     0x2000'0358     0x4  re_app_UART_Ring.o [1]
  .bss               zero     0x2000'035c     0x4  stm32f4xx_hal.o [1]
  .bss               zero     0x2000'0360     0x1  re_app_backup_battery.o [1]
  .bss               zero     0x2000'0361     0x1  re_app_backup_battery.o [1]
  .bss               zero     0x2000'0362     0x1  re_app_backup_battery.o [1]
  .bss               zero     0x2000'0363     0x1  re_app_backup_battery.o [1]
  .bss               zero     0x2000'0364     0x1  re_app_dock_latch.o [1]
  .bss               zero     0x2000'0365     0x1  re_app_dock_latch.o [1]
  .bss               zero     0x2000'0366     0x1  re_app_idle_state.o [1]
  .bss               zero     0x2000'0367     0x1  re_app_key_position.o [1]
  .bss               zero     0x2000'0368     0x1  re_app_key_position.o [1]
  .bss               zero     0x2000'0369     0x1  re_app_motor_temperature.o [1]
  .bss               zero     0x2000'036a     0x1  re_app_nvs.o [1]
  .bss               zero     0x2000'036b     0x1  re_app_nvs.o [1]
  .bss               zero     0x2000'036c     0x1  re_app_UART_Ring.o [1]
  .bss               zero     0x2000'036d     0x1  re_timer_int_callback.o [1]
                            - 0x2000'036e   0x362

"P2", part 3 of 3:                          0x400
  CSTACK                      0x2000'0370   0x400  <Block>
    CSTACK           uninit   0x2000'0370   0x400  <Block tail>
                            - 0x2000'0770   0x400

Unused ranges:

         From           To      Size
         ----           --      ----
   0x800'4f78   0x807'ffff  0x7'b088
  0x2000'0770  0x2001'ffff  0x1'f890


*******************************************************************************
*** INIT TABLE
***

          Address      Size
          -------      ----
Zero (__iar_zero_init3)
    1 destination range, total size 0x362:
          0x2000'000c  0x362

Copy (__iar_copy_init3)
    1 source range, total size 0xc (133% of destination):
           0x800'4e34    0xc
    1 destination range, total size 0x9:
          0x2000'0000    0x9



*******************************************************************************
*** MODULE SUMMARY
***

    Module                      ro code  ro data  rw data
    ------                      -------  -------  -------
command line/config:
    -----------------------------------------------------
    Total:

E:\RACEnergy\BitBucket_Codes\Rear_MCU\Rear_MCU\Toolchain\EWARM\Rear_MCU\Obj: [1]
    main.o                          144       72
    re_app_UART_Ring.o              154               425
    re_app_backup_battery.o         228                 4
    re_app_can.o                    358       76        4
    re_app_dock_latch.o              52                 2
    re_app_gear_status.o             36
    re_app_idle_state.o             584       92        1
    re_app_key_position.o                               2
    re_app_location.o               128
    re_app_motor_temperature.o       24                 1
    re_app_nvs.o                    248       76       26
    re_app_speed_info.o             256       92       24
    re_can_init.o                   396       72       92
    re_can_int_callback.o           156       80
    re_gear_init.o                   92
    re_gpio_int_callback.o          148
    re_i2c_init.o                   212       72       84
    re_key_init.o                   140
    re_latch_init.o                 192
    re_location_init.o               68
    re_speed_init.o                  88
    re_std_def.o                      2
    re_sys_clk_config.o             208       84
    re_thc_init.o                   140
    re_timer_init.o                 364       76      128
    re_timer_int_callback.o          72                 1
    re_uart_init.o                  224       72       64
    re_vb_detection_init.o          144
    startup_stm32f446xx.o           772
    stm32f4xx_hal.o                 206        5        9
    stm32f4xx_hal_can.o           2'038
    stm32f4xx_hal_cortex.o          400
    stm32f4xx_hal_gpio.o            692
    stm32f4xx_hal_i2c.o           2'920
    stm32f4xx_hal_pwr_ex.o          124
    stm32f4xx_hal_rcc.o             400
    stm32f4xx_hal_rcc_ex.o        1'216
    stm32f4xx_hal_tim.o           1'124
    stm32f4xx_hal_tim_ex.o          176
    stm32f4xx_hal_uart.o          1'626
    stm32f4xx_it.o                  136
    system_stm32f4xx.o               28       28        4
    -----------------------------------------------------
    Total:                       16'716      897      871

dl7M_tln.a: [2]
    exit.o                            4
    low_level_init.o                  4
    -----------------------------------------------------
    Total:                            8

m7M_tls.a: [3]
    DblAdd.o                        378
    DblCmpGe.o                       46
    DblDiv.o                        582
    DblMul.o                        418
    DblSub.o                        210
    DblToS32.o                       58
    U32ToDbl.o                       26
    fpinit_M.o                       34
    -----------------------------------------------------
    Total:                        1'752

rt7M_tl.a: [4]
    ABImemset.o                     102
    I64DivMod.o                     560
    I64DivZer.o                       2
    cexit.o                          10
    cmain.o                          30
    copy_init3.o                     46
    cstartup_M.o                     12
    data_init.o                      40
    memset.o                         20
    zero_init3.o                     58
    -----------------------------------------------------
    Total:                          880

shb_l.a: [5]
    exit.o                           20
    -----------------------------------------------------
    Total:                           20

    Gaps                             30        2        4
    Linker created                            39    1'024
---------------------------------------------------------
    Grand Total:                 19'406      938    1'899


*******************************************************************************
*** ENTRY LIST
***

Entry                       Address   Size  Type      Object
-----                       -------   ----  ----      ------
.iar.init_table$$Base    0x800'4d80          --   Gb  - Linker created -
.iar.init_table$$Limit   0x800'4da4          --   Gb  - Linker created -
?main                    0x800'4da5         Code  Gb  cmain.o [4]
AHBPrescTable            0x800'4e08   0x10  Data  Gb  system_stm32f4xx.o [1]
APBPrescTable            0x800'4e40    0x8  Data  Gb  system_stm32f4xx.o [1]
Backup_BatVoltage       0x2000'0363    0x1  Data  Gb  re_app_backup_battery.o [1]
BusFault_Handler         0x800'493b    0x2  Code  Gb  stm32f4xx_it.o [1]
CAN1_RX0_IRQHandler      0x800'4957    0xa  Code  Gb  stm32f4xx_it.o [1]
CAN1_RX1_IRQHandler      0x800'4961    0xa  Code  Gb  stm32f4xx_it.o [1]
CAN1_SCE_IRQHandler      0x800'496b    0xa  Code  Gb  stm32f4xx_it.o [1]
CAN1_TX_IRQHandler       0x800'494d    0xa  Code  Gb  stm32f4xx_it.o [1]
CSTACK$$Base            0x2000'0370          --   Gb  - Linker created -
CSTACK$$Limit           0x2000'0770          --   Gb  - Linker created -
DebugMon_Handler         0x800'4941    0x2  Code  Gb  stm32f4xx_it.o [1]
EXTI0_IRQHandler         0x800'4995    0xa  Code  Gb  stm32f4xx_it.o [1]
EXTI1_IRQHandler         0x800'499f    0xa  Code  Gb  stm32f4xx_it.o [1]
EXTI2_IRQHandler         0x800'49a9    0xa  Code  Gb  stm32f4xx_it.o [1]
EXTI4_IRQHandler         0x800'49b3    0xa  Code  Gb  stm32f4xx_it.o [1]
HAL_CAN_ActivateNotification
                         0x800'1d55   0x34  Code  Gb  stm32f4xx_hal_can.o [1]
HAL_CAN_AddTxMessage     0x800'1ac5  0x138  Code  Gb  stm32f4xx_hal_can.o [1]
HAL_CAN_ConfigFilter     0x800'193d  0x128  Code  Gb  stm32f4xx_hal_can.o [1]
HAL_CAN_GetRxMessage     0x800'1bfd  0x158  Code  Gb  stm32f4xx_hal_can.o [1]
HAL_CAN_IRQHandler       0x800'1d89  0x224  Code  Gb  stm32f4xx_hal_can.o [1]
HAL_CAN_Init             0x800'17d1  0x16c  Code  Gb  stm32f4xx_hal_can.o [1]
HAL_CAN_RxFifo0MsgPendingCallback
                         0x800'1fbd   0x9c  Code  Gb  re_can_int_callback.o [1]
HAL_CAN_Start            0x800'1a65   0x5c  Code  Gb  stm32f4xx_hal_can.o [1]
HAL_Delay                0x800'3cd9   0x28  Code  Wk  stm32f4xx_hal.o [1]
HAL_GPIO_EXTI_Callback   0x800'2371   0x94  Code  Gb  re_gpio_int_callback.o [1]
HAL_GPIO_EXTI_IRQHandler
                         0x800'2315   0x20  Code  Gb  stm32f4xx_hal_gpio.o [1]
HAL_GPIO_Init            0x800'20bd  0x206  Code  Gb  stm32f4xx_hal_gpio.o [1]
HAL_GPIO_ReadPin         0x800'22c3   0x16  Code  Gb  stm32f4xx_hal_gpio.o [1]
HAL_GPIO_TogglePin       0x800'22f3   0x22  Code  Gb  stm32f4xx_hal_gpio.o [1]
HAL_GPIO_WritePin        0x800'22d9   0x1a  Code  Gb  stm32f4xx_hal_gpio.o [1]
HAL_GetTick              0x800'0ebd    0xc  Code  Wk  stm32f4xx_hal.o [1]
HAL_I2C_Init             0x800'01c5  0x1d2  Code  Gb  stm32f4xx_hal_i2c.o [1]
HAL_I2C_Mem_Read         0x800'0521  0x300  Code  Gb  stm32f4xx_hal_i2c.o [1]
HAL_I2C_Mem_Write        0x800'03b1  0x16e  Code  Gb  stm32f4xx_hal_i2c.o [1]
HAL_IncTick              0x800'49bd   0x18  Code  Wk  stm32f4xx_hal.o [1]
HAL_Init                 0x800'4645   0x30  Code  Gb  stm32f4xx_hal.o [1]
HAL_InitTick             0x800'1389   0x4c  Code  Wk  stm32f4xx_hal.o [1]
HAL_NVIC_DisableIRQ      0x800'1757    0xe  Code  Gb  stm32f4xx_hal_cortex.o [1]
HAL_NVIC_EnableIRQ       0x800'1749    0xe  Code  Gb  stm32f4xx_hal_cortex.o [1]
HAL_NVIC_SetPriority     0x800'171f   0x2a  Code  Gb  stm32f4xx_hal_cortex.o [1]
HAL_NVIC_SetPriorityGrouping
                         0x800'1713    0xc  Code  Gb  stm32f4xx_hal_cortex.o [1]
HAL_PWREx_EnableOverDrive
                         0x800'4479   0x6a  Code  Gb  stm32f4xx_hal_pwr_ex.o [1]
HAL_RCC_ClockConfig      0x800'0d2d  0x140  Code  Gb  stm32f4xx_hal_rcc.o [1]
HAL_RCC_GetHCLKFreq      0x800'0e6d    0x6  Code  Gb  stm32f4xx_hal_rcc.o [1]
HAL_RCC_GetPCLK1Freq     0x800'0e73   0x16  Code  Gb  stm32f4xx_hal_rcc.o [1]
HAL_RCC_GetPCLK2Freq     0x800'0e89   0x16  Code  Gb  stm32f4xx_hal_rcc.o [1]
HAL_RCC_GetSysClockFreq
                         0x800'0ec9   0xfa  Code  Gb  stm32f4xx_hal_rcc_ex.o [1]
HAL_RCC_OscConfig        0x800'0fc9  0x390  Code  Gb  stm32f4xx_hal_rcc_ex.o [1]
HAL_SYSTICK_Config       0x800'1765    0xc  Code  Gb  stm32f4xx_hal_cortex.o [1]
HAL_TIMEx_BreakCallback
                         0x800'2fb9    0x2  Code  Wk  stm32f4xx_hal_tim_ex.o [1]
HAL_TIMEx_CommutCallback
                         0x800'2fbd    0x2  Code  Wk  stm32f4xx_hal_tim_ex.o [1]
HAL_TIMEx_MasterConfigSynchronization
                         0x800'4149   0x8e  Code  Gb  stm32f4xx_hal_tim_ex.o [1]
HAL_TIM_Base_Init        0x800'2b0d   0x38  Code  Gb  stm32f4xx_hal_tim.o [1]
HAL_TIM_Base_Start_IT    0x800'2b45   0x2a  Code  Gb  stm32f4xx_hal_tim.o [1]
HAL_TIM_Base_Stop_IT     0x800'2b6f   0x36  Code  Gb  stm32f4xx_hal_tim.o [1]
HAL_TIM_Clk_Init         0x800'3fdd   0x6a  Code  Lc  re_timer_init.o [1]
HAL_TIM_ConfigClockSource
                         0x800'2d1b   0xec  Code  Gb  stm32f4xx_hal_tim.o [1]
HAL_TIM_IRQHandler       0x800'2ba5  0x176  Code  Gb  stm32f4xx_hal_tim.o [1]
HAL_TIM_PeriodElapsedCallback
                         0x800'2f71   0x48  Code  Gb  re_timer_int_callback.o [1]
HAL_UART_Init            0x800'2485   0x76  Code  Gb  stm32f4xx_hal_uart.o [1]
HardFault_Handler        0x800'4937    0x2  Code  Gb  stm32f4xx_it.o [1]
I2C_IsAcknowledgeFailed
                         0x800'0cf3   0x38  Code  Lc  stm32f4xx_hal_i2c.o [1]
I2C_RequestMemoryRead    0x800'0919  0x170  Code  Lc  stm32f4xx_hal_i2c.o [1]
I2C_RequestMemoryWrite   0x800'082d   0xec  Code  Lc  stm32f4xx_hal_i2c.o [1]
I2C_WaitOnBTFFlagUntilTimeout
                         0x800'0c29   0x58  Code  Lc  stm32f4xx_hal_i2c.o [1]
I2C_WaitOnFlagUntilTimeout
                         0x800'0a8d   0x8a  Code  Lc  stm32f4xx_hal_i2c.o [1]
I2C_WaitOnMasterAddressFlagUntilTimeout
                         0x800'0b17   0xba  Code  Lc  stm32f4xx_hal_i2c.o [1]
I2C_WaitOnRXNEFlagUntilTimeout
                         0x800'0c81   0x72  Code  Lc  stm32f4xx_hal_i2c.o [1]
I2C_WaitOnTXEFlagUntilTimeout
                         0x800'0bd1   0x58  Code  Lc  stm32f4xx_hal_i2c.o [1]
MemManage_Handler        0x800'4939    0x2  Code  Gb  stm32f4xx_it.o [1]
NMI_Handler              0x800'4935    0x2  Code  Gb  stm32f4xx_it.o [1]
NVIC_EncodePriority      0x800'16a3   0x40  Code  Lc  stm32f4xx_hal_cortex.o [1]
ODO                     0x2000'0350    0x4  Data  Gb  re_app_speed_info.o [1]
PendSV_Handler           0x800'4943    0x2  Code  Gb  stm32f4xx_it.o [1]
RE_BackupBat_Voltage_Detection
                         0x800'3569   0xe4  Code  Gb  re_app_backup_battery.o [1]
RE_CAN1_Filter_Config    0x800'3f3d   0x42  Code  Gb  re_can_init.o [1]
RE_CAN1_Init             0x800'3ee9   0x54  Code  Gb  re_can_init.o [1]
RE_CAN1_Start_Interrupt
                         0x800'3f7f   0x30  Code  Gb  re_can_init.o [1]
RE_CAN_GpioInit          0x800'3e3d   0xac  Code  Lc  re_can_init.o [1]
RE_Close_DockLatch       0x800'207d   0x12  Code  Gb  re_app_dock_latch.o [1]
RE_Error_Handler         0x800'2063    0x2  Code  Gb  re_std_def.o [1]
RE_I2C_GpioInit          0x800'42d5   0x6c  Code  Lc  re_i2c_init.o [1]
RE_Idle_State_Handler    0x800'2fc1  0x190  Code  Gb  re_app_idle_state.o [1]
RE_Load_System_Status    0x800'3151   0x7c  Code  Gb  re_app_idle_state.o [1]
RE_NVS_Init              0x800'4341   0x4a  Code  Gb  re_i2c_init.o [1]
RE_Open_DockLatch        0x800'2065   0x18  Code  Gb  re_app_dock_latch.o [1]
RE_Packs_Detection       0x800'2405   0x66  Code  Gb  re_app_location.o [1]
RE_ReadDatafromNVS       0x800'3309   0x76  Code  Gb  re_app_nvs.o [1]
RE_SystemClock_Config    0x800'43a9   0xd0  Code  Gb  re_sys_clk_config.o [1]
RE_TIMER2_Init           0x800'40bd   0x78  Code  Gb  re_timer_init.o [1]
RE_TIMER3_Init           0x800'4047   0x76  Code  Gb  re_timer_init.o [1]
RE_Transmit_Frequent_Data
                         0x800'3401   0x50  Code  Gb  re_app_can.o [1]
RE_Transmit_Latch_Status
                         0x800'3451   0x4a  Code  Gb  re_app_can.o [1]
RE_Transmit_SysConfigureData
                         0x800'3559    0xe  Code  Gb  re_app_can.o [1]
RE_Transmit_key_Detection
                         0x800'349b   0x5a  Code  Gb  re_app_can.o [1]
RE_Transmit_odo          0x800'34f5   0x4a  Code  Gb  re_app_can.o [1]
RE_TurnON_LocationPins   0x800'246b   0x12  Code  Gb  re_app_location.o [1]
RE_TurnON_Thc            0x800'491d   0x12  Code  Gb  re_app_motor_temperature.o [1]
RE_Turn_OFF_RevLight     0x800'20a9   0x10  Code  Gb  re_app_gear_status.o [1]
RE_Turn_ON_RevLight      0x800'2099   0x10  Code  Gb  re_app_gear_status.o [1]
RE_UART2_Init            0x800'426f   0x4e  Code  Gb  re_uart_init.o [1]
RE_UART2_RxDataHandler   0x800'36dd    0xa  Code  Gb  re_app_UART_Ring.o [1]
RE_UART_GpioInit         0x800'41f5   0x7a  Code  Lc  re_uart_init.o [1]
RE_WriteBytetoNVS        0x800'337f   0x3c  Code  Gb  re_app_nvs.o [1]
RE_WriteOdoToNVS         0x800'33bb   0x30  Code  Gb  re_app_nvs.o [1]
RE_distance_covered      0x800'3251   0x7c  Code  Gb  re_app_speed_info.o [1]
RE_gear_Init             0x800'47d9   0x5c  Code  Gb  re_gear_init.o [1]
RE_key_Init              0x800'46c1   0x8c  Code  Gb  re_key_init.o [1]
RE_latch_Init            0x800'44f5   0xc0  Code  Gb  re_latch_init.o [1]
RE_location_Init         0x800'467d   0x44  Code  Gb  re_location_init.o [1]
RE_speed                 0x800'3209   0x48  Code  Gb  re_app_speed_info.o [1]
RE_speed_Init            0x800'4835   0x58  Code  Gb  re_speed_init.o [1]
RE_thc_Init              0x800'474d   0x8c  Code  Gb  re_thc_init.o [1]
RE_vb_detection_Init     0x800'488d   0x90  Code  Gb  re_vb_detection_init.o [1]
Region$$Table$$Base      0x800'4d80          --   Gb  - Linker created -
Region$$Table$$Limit     0x800'4da4          --   Gb  - Linker created -
Ringbuf_Free             0x800'3675   0x54  Code  Gb  re_app_UART_Ring.o [1]
Ringbuf_Init             0x800'364d   0x28  Code  Gb  re_app_UART_Ring.o [1]
RpmCnt                  0x2000'0348    0x4  Data  Gb  re_app_speed_info.o [1]
RxHeader_t              0x2000'02e8   0x1c  Data  Gb  re_can_init.o [1]
SVC_Handler              0x800'493f    0x2  Code  Gb  stm32f4xx_it.o [1]
SysConfig_Buffer        0x2000'0328    0xc  Data  Gb  re_app_nvs.o [1]
SysTick_Config           0x800'16e3   0x30  Code  Lc  stm32f4xx_hal_cortex.o [1]
SysTick_Handler          0x800'4945    0x8  Code  Gb  stm32f4xx_it.o [1]
SystemConfig            0x2000'031c    0xc  Data  Gb  re_app_nvs.o [1]
SystemCoreClock         0x2000'0004    0x4  Data  Gb  system_stm32f4xx.o [1]
SystemInit               0x800'4ded   0x14  Code  Gb  system_stm32f4xx.o [1]
TIM2_IRQHandler          0x800'497f    0xa  Code  Gb  stm32f4xx_it.o [1]
TIM3_IRQHandler          0x800'4975    0xa  Code  Gb  stm32f4xx_it.o [1]
TIM_Base_SetConfig       0x800'2e07   0xc0  Code  Gb  stm32f4xx_hal_tim.o [1]
TIM_ETR_SetConfig        0x800'2f4f   0x18  Code  Gb  stm32f4xx_hal_tim.o [1]
TIM_ITRx_SetConfig       0x800'2f3f   0x10  Code  Lc  stm32f4xx_hal_tim.o [1]
TIM_TI1_ConfigInputStage
                         0x800'2ef5   0x24  Code  Lc  stm32f4xx_hal_tim.o [1]
TIM_TI2_ConfigInputStage
                         0x800'2f19   0x26  Code  Lc  stm32f4xx_hal_tim.o [1]
TxHeader_t              0x2000'0304   0x18  Data  Gb  re_can_init.o [1]
Tx_SysConfigureData_Flag
                        0x2000'036a    0x1  Data  Gb  re_app_nvs.o [1]
UART_SetConfig           0x800'24fb  0x5d4  Code  Lc  stm32f4xx_hal_uart.o [1]
Uart2RxCmplt            0x2000'036c    0x1  Data  Gb  re_app_UART_Ring.o [1]
UsageFault_Handler       0x800'493d    0x2  Code  Gb  stm32f4xx_it.o [1]
Voltage1                0x2000'0360    0x1  Data  Lc  re_app_backup_battery.o [1]
Voltage2                0x2000'0361    0x1  Data  Lc  re_app_backup_battery.o [1]
Voltage3                0x2000'0362    0x1  Data  Lc  re_app_backup_battery.o [1]
Write_KeyState_Flag     0x2000'0368    0x1  Data  Gb  re_app_key_position.o [1]
__NVIC_DisableIRQ        0x800'1651   0x26  Code  Lc  stm32f4xx_hal_cortex.o [1]
__NVIC_EnableIRQ         0x800'1633   0x1e  Code  Lc  stm32f4xx_hal_cortex.o [1]
__NVIC_GetPriorityGrouping
                         0x800'1627    0xc  Code  Lc  stm32f4xx_hal_cortex.o [1]
__NVIC_SetPriority       0x800'1677   0x2c  Code  Lc  stm32f4xx_hal_cortex.o [1]
__NVIC_SetPriorityGrouping
                         0x800'1605   0x22  Code  Lc  stm32f4xx_hal_cortex.o [1]
__aeabi_cdrcmple         0x800'3ca9         Code  Gb  DblCmpGe.o [3]
__aeabi_d2iz             0x800'3c6d         Code  Gb  DblToS32.o [3]
__aeabi_dadd             0x800'38a9         Code  Gb  DblAdd.o [3]
__aeabi_ddiv             0x800'3a25         Code  Gb  DblDiv.o [3]
__aeabi_dmul             0x800'3705         Code  Gb  DblMul.o [3]
__aeabi_ldiv0            0x800'1795         Code  Gb  I64DivZer.o [4]
__aeabi_memset           0x800'3d01         Code  Gb  ABImemset.o [4]
__aeabi_ui2d             0x800'36e9         Code  Gb  U32ToDbl.o [3]
__aeabi_uldivmod         0x800'13d5         Code  Gb  I64DivMod.o [4]
__cmain                  0x800'4da5         Code  Gb  cmain.o [4]
__exit                   0x800'4dd9   0x14  Code  Gb  exit.o [5]
__iar_Memset             0x800'3d01         Code  Gb  ABImemset.o [4]
__iar_Memset_word        0x800'3d09         Code  Gb  ABImemset.o [4]
__iar_copy_init3         0x800'2adf   0x2e  Code  Gb  copy_init3.o [4]
__iar_dadd               0x800'3d69         Code  Gb  DblSub.o [3]
__iar_data_init3         0x800'4d35   0x28  Code  Gb  data_init.o [4]
__iar_dsub               0x800'38b9         Code  Gb  DblAdd.o [3]
__iar_dsubStart          0x800'38cb         Code  Gb  DblAdd.o [3]
__iar_init_vfp           0x800'4d5d         Code  Gb  fpinit_M.o [3]
__iar_program_start      0x800'4e29         Code  Gb  cstartup_M.o [4]
__iar_zero_init3         0x800'1797   0x3a  Code  Gb  zero_init3.o [4]
__low_level_init         0x800'4dc3    0x4  Code  Gb  low_level_init.o [2]
__vector_table           0x800'0000         Data  Gb  startup_stm32f446xx.o [1]
_call_main               0x800'4db1         Code  Gb  cmain.o [4]
_exit                    0x800'4dcd         Code  Gb  cexit.o [4]
_main                    0x800'4dbf         Code  Gb  cmain.o [4]
_rx_buffer              0x2000'0354    0x4  Data  Gb  re_app_UART_Ring.o [1]
_tx_buffer              0x2000'0358    0x4  Data  Gb  re_app_UART_Ring.o [1]
can_tx_msg              0x2000'0340    0x4  Data  Gb  re_app_can.o [1]
exit                     0x800'4dc7    0x4  Code  Gb  exit.o [2]
hcan1_t                 0x2000'02c0   0x28  Data  Gb  re_can_init.o [1]
hi2c1_t                 0x2000'01ac   0x54  Data  Gb  re_i2c_init.o [1]
htim2_t                 0x2000'0240   0x40  Data  Gb  re_timer_init.o [1]
htim3_t                 0x2000'0200   0x40  Data  Gb  re_timer_init.o [1]
huart2_t                0x2000'0280   0x40  Data  Gb  re_uart_init.o [1]
kmph                    0x2000'0344    0x4  Data  Gb  re_app_speed_info.o [1]
latch_close_timer       0x2000'0366    0x1  Data  Lc  re_app_idle_state.o [1]
latch_opened            0x2000'0365    0x1  Data  Gb  re_app_dock_latch.o [1]
main                     0x800'45b5   0x90  Code  Gb  main.o [1]
memset                   0x800'3fc9   0x14  Code  Gb  memset.o [4]
pulse_counter           0x2000'034c    0x4  Data  Gb  re_app_speed_info.o [1]
rx_buffer               0x2000'000c   0xd0  Data  Gb  re_app_UART_Ring.o [1]
save_odo                0x2000'0338    0x8  Data  Gb  re_app_speed_info.o [1]
t500ms_Elapsed          0x2000'036d    0x1  Data  Gb  re_timer_int_callback.o [1]
tx_buffer               0x2000'00dc   0xd0  Data  Gb  re_app_UART_Ring.o [1]
tx_key_status_Flag      0x2000'0367    0x1  Data  Gb  re_app_key_position.o [1]
tx_latch_status_Flag    0x2000'0364    0x1  Data  Gb  re_app_dock_latch.o [1]
tx_thc_Flag             0x2000'0369    0x1  Data  Gb  re_app_motor_temperature.o [1]
uwTick                  0x2000'035c    0x4  Data  Gb  stm32f4xx_hal.o [1]
uwTickFreq              0x2000'0008    0x1  Data  Gb  stm32f4xx_hal.o [1]
uwTickPrio              0x2000'0000    0x4  Data  Gb  stm32f4xx_hal.o [1]
write_g2g_to_nvs_flag   0x2000'036b    0x1  Data  Gb  re_app_nvs.o [1]


[1] = E:\RACEnergy\BitBucket_Codes\Rear_MCU\Rear_MCU\Toolchain\EWARM\Rear_MCU\Obj
[2] = dl7M_tln.a
[3] = m7M_tls.a
[4] = rt7M_tl.a
[5] = shb_l.a

  19'406 bytes of readonly  code memory
     938 bytes of readonly  data memory
   1'899 bytes of readwrite data memory

Errors: none
Warnings: none
